:200000000C9449000C9466000C9466000C9466000C9466000C9466000C9466000C946600CD
:200020000C9466000C9466000C9466000C9466000C9466000C9466000C9466000C94660090
:200040000C948D000C9466000C9466000C9466000C9466000C9466000C9466000C94660049
:200060000C9466000C946600485FC1455664604F40444270E8F151E0E25272FAFB7F59F8B3
:200080004A7371C246F3F0587954EFF7FDDE7BBFFF0011241FBECFEFD4E0DEBFCDBF11E08A
:2000A000A0E0B1E0ECECF2E002C005900D92A430B107D9F721E0A4E0B1E001C01D92AD30D0
:2000C000B207E1F70E94D7000C9464010C9400003FB7F8948091090190910A01A0910B016B
:2000E000B0910C0126B5A89B05C02F3F19F00196A11DB11D3FBFBA2FA92F982F8827820F6F
:20010000911DA11DB11DBC01CD0146E0660F771F881F991F4A95D1F708951F920F920FB62F
:200120000F9211242F933F938F939F93AF93BF938091050190910601A0910701B0910801AB
:200140003091040120E3230F2D3720F44096A11DB11D05C023EB230F4196A11DB11D2093AF
:2001600004018093050190930601A0930701B09308018091090190910A01A0910B01B091EB
:200180000C010196A11DB11D8093090190930A01A0930B01B0930C01BF91AF919F918F9175
:2001A0003F912F910F900FBE0F901F901895789484B5826084BD84B5816084BD85B5826069
:2001C00085BD85B5816085BD80916E00816080936E00109281008091810082608093810074
:2001E000809180008160809380008091B10084608093B1008091B00081608093B00080911A
:200200007A008B7F80937A0080917A00826080937A0080917A00816080937A0080917A004F
:20022000806880937A001092C10084ED84B98FEF8AB988E690E019E2180F80E091E004E0C2
:20024000080F20E0822E20E0922E90E0A92E91E0B92EF50181915F0185B9C8E6D0E0FE0175
:2002600084918BB90E9468002B013C0188EEC82E83E0D82EE12CF12C0E946800DC01CB0100
:2002800084199509A609B709883E9340A105B10558F0F1E0CF1AD108E108F10828EE420E9C
:2002A00023E0521E611C711CC114D104E104F10419F721961C13D3CF0A11CBCF81149104C6
:1002C00021F20E940000C1CFF894FFCFD0C4549413
:00000001FF
